{
	"FcuntionReturns.sol": {
		"FunctionReturns": {
			"abi": [
				{
					"inputs": [],
					"name": "assigned",
					"outputs": [
						{
							"internalType": "uint256",
							"name": "x",
							"type": "uint256"
						},
						{
							"internalType": "bool",
							"name": "b",
							"type": "bool"
						}
					],
					"stateMutability": "pure",
					"type": "function"
				},
				{
					"inputs": [],
					"name": "destructuringAssigment",
					"outputs": [],
					"stateMutability": "pure",
					"type": "function"
				},
				{
					"inputs": [],
					"name": "returnMany",
					"outputs": [
						{
							"internalType": "uint256",
							"name": "",
							"type": "uint256"
						},
						{
							"internalType": "bool",
							"name": "",
							"type": "bool"
						}
					],
					"stateMutability": "pure",
					"type": "function"
				},
				{
					"inputs": [],
					"name": "returnNamed",
					"outputs": [
						{
							"internalType": "uint256",
							"name": "x",
							"type": "uint256"
						},
						{
							"internalType": "bool",
							"name": "b",
							"type": "bool"
						}
					],
					"stateMutability": "pure",
					"type": "function"
				}
			],
			"devdoc": {
				"kind": "dev",
				"methods": {},
				"version": 1
			},
			"evm": {
				"assembly": "    /* \"FcuntionReturns.sol\":57:668  contract FunctionReturns{... */\n  mstore(0x40, 0x80)\n  callvalue\n  dup1\n  iszero\n  tag_1\n  jumpi\n  0x00\n  dup1\n  revert\ntag_1:\n  pop\n  dataSize(sub_0)\n  dup1\n  dataOffset(sub_0)\n  0x00\n  codecopy\n  0x00\n  return\nstop\n\nsub_0: assembly {\n        /* \"FcuntionReturns.sol\":57:668  contract FunctionReturns{... */\n      mstore(0x40, 0x80)\n      callvalue\n      dup1\n      iszero\n      tag_1\n      jumpi\n      0x00\n      dup1\n      revert\n    tag_1:\n      pop\n      jumpi(tag_2, lt(calldatasize, 0x04))\n      shr(0xe0, calldataload(0x00))\n      dup1\n      0x3dece511\n      eq\n      tag_3\n      jumpi\n      dup1\n      0x44800e76\n      eq\n      tag_4\n      jumpi\n      dup1\n      0x86887544\n      eq\n      tag_5\n      jumpi\n      dup1\n      0xadb4d990\n      eq\n      tag_6\n      jumpi\n    tag_2:\n      0x00\n      dup1\n      revert\n        /* \"FcuntionReturns.sol\":292:386  function returnNamed() public pure returns (uint x, bool b) {... */\n    tag_3:\n      tag_7\n      tag_8\n      jump\t// in\n    tag_7:\n      mload(0x40)\n      tag_9\n      swap3\n      swap2\n      swap1\n      tag_10\n      jump\t// in\n    tag_9:\n      mload(0x40)\n      dup1\n      swap2\n      sub\n      swap1\n      return\n        /* \"FcuntionReturns.sol\":539:665  function destructuringAssigment() public pure {... */\n    tag_4:\n      tag_11\n      tag_12\n      jump\t// in\n    tag_11:\n      stop\n        /* \"FcuntionReturns.sol\":172:260  function returnMany()public pure returns (uint, bool) {... */\n    tag_5:\n      tag_13\n      tag_14\n      jump\t// in\n    tag_13:\n      mload(0x40)\n      tag_15\n      swap3\n      swap2\n      swap1\n      tag_10\n      jump\t// in\n    tag_15:\n      mload(0x40)\n      dup1\n      swap2\n      sub\n      swap1\n      return\n        /* \"FcuntionReturns.sol\":436:533  function assigned() public pure returns (uint x, bool b){... */\n    tag_6:\n      tag_16\n      tag_17\n      jump\t// in\n    tag_16:\n      mload(0x40)\n      tag_18\n      swap3\n      swap2\n      swap1\n      tag_10\n      jump\t// in\n    tag_18:\n      mload(0x40)\n      dup1\n      swap2\n      sub\n      swap1\n      return\n        /* \"FcuntionReturns.sol\":292:386  function returnNamed() public pure returns (uint x, bool b) {... */\n    tag_8:\n        /* \"FcuntionReturns.sol\":336:342  uint x */\n      0x00\n        /* \"FcuntionReturns.sol\":344:350  bool b */\n      dup1\n        /* \"FcuntionReturns.sol\":370:371  1 */\n      0x01\n        /* \"FcuntionReturns.sol\":373:378  false */\n      0x00\n        /* \"FcuntionReturns.sol\":362:379  return (1, false) */\n      swap2\n      pop\n      swap2\n      pop\n        /* \"FcuntionReturns.sol\":292:386  function returnNamed() public pure returns (uint x, bool b) {... */\n      swap1\n      swap2\n      jump\t// out\n        /* \"FcuntionReturns.sol\":539:665  function destructuringAssigment() public pure {... */\n    tag_12:\n        /* \"FcuntionReturns.sol\":596:602  uint x */\n      0x00\n        /* \"FcuntionReturns.sol\":604:610  bool b */\n      dup1\n        /* \"FcuntionReturns.sol\":614:624  assigned() */\n      tag_21\n        /* \"FcuntionReturns.sol\":614:622  assigned */\n      tag_17\n        /* \"FcuntionReturns.sol\":614:624  assigned() */\n      jump\t// in\n    tag_21:\n        /* \"FcuntionReturns.sol\":595:624  (uint x, bool b) = assigned() */\n      swap2\n      pop\n      swap2\n      pop\n        /* \"FcuntionReturns.sol\":637:644  bool _b */\n      0x00\n        /* \"FcuntionReturns.sol\":648:658  assigned() */\n      tag_22\n        /* \"FcuntionReturns.sol\":648:656  assigned */\n      tag_17\n        /* \"FcuntionReturns.sol\":648:658  assigned() */\n      jump\t// in\n    tag_22:\n        /* \"FcuntionReturns.sol\":634:658  (, bool _b) = assigned() */\n      swap2\n      pop\n      pop\n        /* \"FcuntionReturns.sol\":585:665  {... */\n      pop\n      pop\n      pop\n        /* \"FcuntionReturns.sol\":539:665  function destructuringAssigment() public pure {... */\n      jump\t// out\n        /* \"FcuntionReturns.sol\":172:260  function returnMany()public pure returns (uint, bool) {... */\n    tag_14:\n        /* \"FcuntionReturns.sol\":214:218  uint */\n      0x00\n        /* \"FcuntionReturns.sol\":220:224  bool */\n      dup1\n        /* \"FcuntionReturns.sol\":244:245  1 */\n      0x01\n        /* \"FcuntionReturns.sol\":247:252  false */\n      0x00\n        /* \"FcuntionReturns.sol\":236:253  return (1, false) */\n      swap2\n      pop\n      swap2\n      pop\n        /* \"FcuntionReturns.sol\":172:260  function returnMany()public pure returns (uint, bool) {... */\n      swap1\n      swap2\n      jump\t// out\n        /* \"FcuntionReturns.sol\":436:533  function assigned() public pure returns (uint x, bool b){... */\n    tag_17:\n        /* \"FcuntionReturns.sol\":477:483  uint x */\n      0x00\n        /* \"FcuntionReturns.sol\":485:491  bool b */\n      dup1\n        /* \"FcuntionReturns.sol\":506:507  1 */\n      0x01\n        /* \"FcuntionReturns.sol\":502:507  x = 1 */\n      swap2\n      pop\n        /* \"FcuntionReturns.sol\":521:526  false */\n      0x00\n        /* \"FcuntionReturns.sol\":517:526  b = false */\n      swap1\n      pop\n        /* \"FcuntionReturns.sol\":436:533  function assigned() public pure returns (uint x, bool b){... */\n      swap1\n      swap2\n      jump\t// out\n        /* \"#utility.yul\":7:84   */\n    tag_25:\n        /* \"#utility.yul\":44:51   */\n      0x00\n        /* \"#utility.yul\":73:78   */\n      dup2\n        /* \"#utility.yul\":62:78   */\n      swap1\n      pop\n        /* \"#utility.yul\":7:84   */\n      swap2\n      swap1\n      pop\n      jump\t// out\n        /* \"#utility.yul\":90:208   */\n    tag_26:\n        /* \"#utility.yul\":177:201   */\n      tag_32\n        /* \"#utility.yul\":195:200   */\n      dup2\n        /* \"#utility.yul\":177:201   */\n      tag_25\n      jump\t// in\n    tag_32:\n        /* \"#utility.yul\":172:175   */\n      dup3\n        /* \"#utility.yul\":165:202   */\n      mstore\n        /* \"#utility.yul\":90:208   */\n      pop\n      pop\n      jump\t// out\n        /* \"#utility.yul\":214:304   */\n    tag_27:\n        /* \"#utility.yul\":248:255   */\n      0x00\n        /* \"#utility.yul\":291:296   */\n      dup2\n        /* \"#utility.yul\":284:297   */\n      iszero\n        /* \"#utility.yul\":277:298   */\n      iszero\n        /* \"#utility.yul\":266:298   */\n      swap1\n      pop\n        /* \"#utility.yul\":214:304   */\n      swap2\n      swap1\n      pop\n      jump\t// out\n        /* \"#utility.yul\":310:419   */\n    tag_28:\n        /* \"#utility.yul\":391:412   */\n      tag_35\n        /* \"#utility.yul\":406:411   */\n      dup2\n        /* \"#utility.yul\":391:412   */\n      tag_27\n      jump\t// in\n    tag_35:\n        /* \"#utility.yul\":386:389   */\n      dup3\n        /* \"#utility.yul\":379:413   */\n      mstore\n        /* \"#utility.yul\":310:419   */\n      pop\n      pop\n      jump\t// out\n        /* \"#utility.yul\":425:745   */\n    tag_10:\n        /* \"#utility.yul\":540:544   */\n      0x00\n        /* \"#utility.yul\":578:580   */\n      0x40\n        /* \"#utility.yul\":567:576   */\n      dup3\n        /* \"#utility.yul\":563:581   */\n      add\n        /* \"#utility.yul\":555:581   */\n      swap1\n      pop\n        /* \"#utility.yul\":591:662   */\n      tag_37\n        /* \"#utility.yul\":659:660   */\n      0x00\n        /* \"#utility.yul\":648:657   */\n      dup4\n        /* \"#utility.yul\":644:661   */\n      add\n        /* \"#utility.yul\":635:641   */\n      dup6\n        /* \"#utility.yul\":591:662   */\n      tag_26\n      jump\t// in\n    tag_37:\n        /* \"#utility.yul\":672:738   */\n      tag_38\n        /* \"#utility.yul\":734:736   */\n      0x20\n        /* \"#utility.yul\":723:732   */\n      dup4\n        /* \"#utility.yul\":719:737   */\n      add\n        /* \"#utility.yul\":710:716   */\n      dup5\n        /* \"#utility.yul\":672:738   */\n      tag_28\n      jump\t// in\n    tag_38:\n        /* \"#utility.yul\":425:745   */\n      swap4\n      swap3\n      pop\n      pop\n      pop\n      jump\t// out\n\n    auxdata: 0xa26469706673582212200015e2d2ce07bb4160dedd6e67fc924829b66fb61bd3ed65218dc6c27e4cb46564736f6c634300081a0033\n}\n",
				"bytecode": {
					"linkReferences": {},
					"object": "6080604052348015600e575f80fd5b5061018a8061001c5f395ff3fe608060405234801561000f575f80fd5b506004361061004a575f3560e01c80633dece5111461004e57806344800e761461006d5780638688754414610077578063adb4d99014610096575b5f80fd5b6100566100b5565b60405161006492919061012d565b60405180910390f35b6100756100c2565b005b61007f6100e1565b60405161008d92919061012d565b60405180910390f35b61009e6100ee565b6040516100ac92919061012d565b60405180910390f35b5f8060015f915091509091565b5f806100cc6100ee565b915091505f6100d96100ee565b915050505050565b5f8060015f915091509091565b5f80600191505f90509091565b5f819050919050565b61010d816100fb565b82525050565b5f8115159050919050565b61012781610113565b82525050565b5f6040820190506101405f830185610104565b61014d602083018461011e565b939250505056fea26469706673582212200015e2d2ce07bb4160dedd6e67fc924829b66fb61bd3ed65218dc6c27e4cb46564736f6c634300081a0033",
					"opcodes": "PUSH1 0x80 PUSH1 0x40 MSTORE CALLVALUE DUP1 ISZERO PUSH1 0xE JUMPI PUSH0 DUP1 REVERT JUMPDEST POP PUSH2 0x18A DUP1 PUSH2 0x1C PUSH0 CODECOPY PUSH0 RETURN INVALID PUSH1 0x80 PUSH1 0x40 MSTORE CALLVALUE DUP1 ISZERO PUSH2 0xF JUMPI PUSH0 DUP1 REVERT JUMPDEST POP PUSH1 0x4 CALLDATASIZE LT PUSH2 0x4A JUMPI PUSH0 CALLDATALOAD PUSH1 0xE0 SHR DUP1 PUSH4 0x3DECE511 EQ PUSH2 0x4E JUMPI DUP1 PUSH4 0x44800E76 EQ PUSH2 0x6D JUMPI DUP1 PUSH4 0x86887544 EQ PUSH2 0x77 JUMPI DUP1 PUSH4 0xADB4D990 EQ PUSH2 0x96 JUMPI JUMPDEST PUSH0 DUP1 REVERT JUMPDEST PUSH2 0x56 PUSH2 0xB5 JUMP JUMPDEST PUSH1 0x40 MLOAD PUSH2 0x64 SWAP3 SWAP2 SWAP1 PUSH2 0x12D JUMP JUMPDEST PUSH1 0x40 MLOAD DUP1 SWAP2 SUB SWAP1 RETURN JUMPDEST PUSH2 0x75 PUSH2 0xC2 JUMP JUMPDEST STOP JUMPDEST PUSH2 0x7F PUSH2 0xE1 JUMP JUMPDEST PUSH1 0x40 MLOAD PUSH2 0x8D SWAP3 SWAP2 SWAP1 PUSH2 0x12D JUMP JUMPDEST PUSH1 0x40 MLOAD DUP1 SWAP2 SUB SWAP1 RETURN JUMPDEST PUSH2 0x9E PUSH2 0xEE JUMP JUMPDEST PUSH1 0x40 MLOAD PUSH2 0xAC SWAP3 SWAP2 SWAP1 PUSH2 0x12D JUMP JUMPDEST PUSH1 0x40 MLOAD DUP1 SWAP2 SUB SWAP1 RETURN JUMPDEST PUSH0 DUP1 PUSH1 0x1 PUSH0 SWAP2 POP SWAP2 POP SWAP1 SWAP2 JUMP JUMPDEST PUSH0 DUP1 PUSH2 0xCC PUSH2 0xEE JUMP JUMPDEST SWAP2 POP SWAP2 POP PUSH0 PUSH2 0xD9 PUSH2 0xEE JUMP JUMPDEST SWAP2 POP POP POP POP POP JUMP JUMPDEST PUSH0 DUP1 PUSH1 0x1 PUSH0 SWAP2 POP SWAP2 POP SWAP1 SWAP2 JUMP JUMPDEST PUSH0 DUP1 PUSH1 0x1 SWAP2 POP PUSH0 SWAP1 POP SWAP1 SWAP2 JUMP JUMPDEST PUSH0 DUP2 SWAP1 POP SWAP2 SWAP1 POP JUMP JUMPDEST PUSH2 0x10D DUP2 PUSH2 0xFB JUMP JUMPDEST DUP3 MSTORE POP POP JUMP JUMPDEST PUSH0 DUP2 ISZERO ISZERO SWAP1 POP SWAP2 SWAP1 POP JUMP JUMPDEST PUSH2 0x127 DUP2 PUSH2 0x113 JUMP JUMPDEST DUP3 MSTORE POP POP JUMP JUMPDEST PUSH0 PUSH1 0x40 DUP3 ADD SWAP1 POP PUSH2 0x140 PUSH0 DUP4 ADD DUP6 PUSH2 0x104 JUMP JUMPDEST PUSH2 0x14D PUSH1 0x20 DUP4 ADD DUP5 PUSH2 0x11E JUMP JUMPDEST SWAP4 SWAP3 POP POP POP JUMP INVALID LOG2 PUSH5 0x6970667358 0x22 SLT KECCAK256 STOP ISZERO 0xE2 0xD2 0xCE SMOD 0xBB COINBASE PUSH1 0xDE 0xDD PUSH15 0x67FC924829B66FB61BD3ED65218DC6 0xC2 PUSH31 0x4CB46564736F6C634300081A00330000000000000000000000000000000000 "
				},
				"gasEstimates": {
					"creation": {
						"codeDepositCost": "78800",
						"executionCost": "127",
						"totalCost": "78927"
					},
					"external": {
						"assigned()": "494",
						"destructuringAssigment()": "infinite",
						"returnMany()": "472",
						"returnNamed()": "428"
					}
				},
				"methodIdentifiers": {
					"assigned()": "adb4d990",
					"destructuringAssigment()": "44800e76",
					"returnMany()": "86887544",
					"returnNamed()": "3dece511"
				}
			},
			"storageLayout": {
				"storage": [],
				"types": null
			},
			"userdoc": {
				"kind": "user",
				"methods": {},
				"version": 1
			}
		}
	}
}