{
	"ForAndWhileLoops.sol": {
		"ForAndWhileLoops": {
			"abi": [
				{
					"inputs": [],
					"name": "loops",
					"outputs": [],
					"stateMutability": "pure",
					"type": "function"
				},
				{
					"inputs": [
						{
							"internalType": "uint256",
							"name": "_x",
							"type": "uint256"
						}
					],
					"name": "sum",
					"outputs": [
						{
							"internalType": "uint256",
							"name": "",
							"type": "uint256"
						}
					],
					"stateMutability": "pure",
					"type": "function"
				}
			],
			"devdoc": {
				"kind": "dev",
				"methods": {},
				"version": 1
			},
			"evm": {
				"assembly": "    /* \"ForAndWhileLoops.sol\":58:805  contract ForAndWhileLoops{... */\n  mstore(0x40, 0x80)\n  callvalue\n  dup1\n  iszero\n  tag_1\n  jumpi\n  0x00\n  dup1\n  revert\ntag_1:\n  pop\n  dataSize(sub_0)\n  dup1\n  dataOffset(sub_0)\n  0x00\n  codecopy\n  0x00\n  return\nstop\n\nsub_0: assembly {\n        /* \"ForAndWhileLoops.sol\":58:805  contract ForAndWhileLoops{... */\n      mstore(0x40, 0x80)\n      callvalue\n      dup1\n      iszero\n      tag_1\n      jumpi\n      0x00\n      dup1\n      revert\n    tag_1:\n      pop\n      jumpi(tag_2, lt(calldatasize, 0x04))\n      shr(0xe0, calldataload(0x00))\n      dup1\n      0x188b85b4\n      eq\n      tag_3\n      jumpi\n      dup1\n      0x938b9ceb\n      eq\n      tag_4\n      jumpi\n    tag_2:\n      0x00\n      dup1\n      revert\n        /* \"ForAndWhileLoops.sol\":631:802  function sum(uint _x) external pure returns (uint){... */\n    tag_3:\n      tag_5\n      0x04\n      dup1\n      calldatasize\n      sub\n      dup2\n      add\n      swap1\n      tag_6\n      swap2\n      swap1\n      tag_7\n      jump\t// in\n    tag_6:\n      tag_8\n      jump\t// in\n    tag_5:\n      mload(0x40)\n      tag_9\n      swap2\n      swap1\n      tag_10\n      jump\t// in\n    tag_9:\n      mload(0x40)\n      dup1\n      swap2\n      sub\n      swap1\n      return\n        /* \"ForAndWhileLoops.sol\":90:605  function loops () external pure {... */\n    tag_4:\n      tag_11\n      tag_12\n      jump\t// in\n    tag_11:\n      stop\n        /* \"ForAndWhileLoops.sol\":631:802  function sum(uint _x) external pure returns (uint){... */\n    tag_8:\n        /* \"ForAndWhileLoops.sol\":676:680  uint */\n      0x00\n        /* \"ForAndWhileLoops.sol\":691:697  uint s */\n      dup1\n        /* \"ForAndWhileLoops.sol\":712:718  uint i */\n      0x00\n        /* \"ForAndWhileLoops.sol\":721:722  1 */\n      0x01\n        /* \"ForAndWhileLoops.sol\":712:722  uint i = 1 */\n      swap1\n      pop\n        /* \"ForAndWhileLoops.sol\":707:777  for (uint i = 1; i <= _x; i++){... */\n    tag_14:\n        /* \"ForAndWhileLoops.sol\":729:731  _x */\n      dup4\n        /* \"ForAndWhileLoops.sol\":724:725  i */\n      dup2\n        /* \"ForAndWhileLoops.sol\":724:731  i <= _x */\n      gt\n        /* \"ForAndWhileLoops.sol\":707:777  for (uint i = 1; i <= _x; i++){... */\n      tag_15\n      jumpi\n        /* \"ForAndWhileLoops.sol\":756:757  i */\n      dup1\n        /* \"ForAndWhileLoops.sol\":751:757  s += i */\n      dup3\n      tag_17\n      swap2\n      swap1\n      tag_18\n      jump\t// in\n    tag_17:\n      swap2\n      pop\n        /* \"ForAndWhileLoops.sol\":733:736  i++ */\n      dup1\n      dup1\n      tag_19\n      swap1\n      tag_20\n      jump\t// in\n    tag_19:\n      swap2\n      pop\n      pop\n        /* \"ForAndWhileLoops.sol\":707:777  for (uint i = 1; i <= _x; i++){... */\n      jump(tag_14)\n    tag_15:\n      pop\n        /* \"ForAndWhileLoops.sol\":793:794  s */\n      dup1\n        /* \"ForAndWhileLoops.sol\":786:794  return s */\n      swap2\n      pop\n      pop\n        /* \"ForAndWhileLoops.sol\":631:802  function sum(uint _x) external pure returns (uint){... */\n      swap2\n      swap1\n      pop\n      jump\t// out\n        /* \"ForAndWhileLoops.sol\":90:605  function loops () external pure {... */\n    tag_12:\n        /* \"ForAndWhileLoops.sol\":138:144  uint i */\n      0x00\n        /* \"ForAndWhileLoops.sol\":132:502  for ( uint i = 0; i < 10; i++){... */\n    tag_22:\n        /* \"ForAndWhileLoops.sol\":154:156  10 */\n      0x0a\n        /* \"ForAndWhileLoops.sol\":150:151  i */\n      dup2\n        /* \"ForAndWhileLoops.sol\":150:156  i < 10 */\n      lt\n        /* \"ForAndWhileLoops.sol\":132:502  for ( uint i = 0; i < 10; i++){... */\n      iszero\n      tag_23\n      jumpi\n        /* \"ForAndWhileLoops.sol\":274:275  3 */\n      0x03\n        /* \"ForAndWhileLoops.sol\":269:270  i */\n      dup2\n        /* \"ForAndWhileLoops.sol\":269:275  i == 3 */\n      sub\n        /* \"ForAndWhileLoops.sol\":265:317  if (i == 3){... */\n      iszero\n        /* \"ForAndWhileLoops.sol\":294:302  continue */\n      tag_24\n        /* \"ForAndWhileLoops.sol\":265:317  if (i == 3){... */\n      jumpi\n        /* \"ForAndWhileLoops.sol\":427:428  5 */\n      0x05\n        /* \"ForAndWhileLoops.sol\":422:423  i */\n      dup2\n        /* \"ForAndWhileLoops.sol\":422:428  i == 5 */\n      sub\n        /* \"ForAndWhileLoops.sol\":418:467  if (i == 5){... */\n      iszero\n        /* \"ForAndWhileLoops.sol\":447:452  break */\n      tag_23\n        /* \"ForAndWhileLoops.sol\":418:467  if (i == 5){... */\n      jumpi\n        /* \"ForAndWhileLoops.sol\":132:502  for ( uint i = 0; i < 10; i++){... */\n    tag_24:\n        /* \"ForAndWhileLoops.sol\":158:161  i++ */\n      dup1\n      dup1\n      0x01\n      add\n      swap2\n      pop\n      pop\n        /* \"ForAndWhileLoops.sol\":132:502  for ( uint i = 0; i < 10; i++){... */\n      jump(tag_22)\n    tag_23:\n      pop\n        /* \"ForAndWhileLoops.sol\":512:518  uint j */\n      0x00\n        /* \"ForAndWhileLoops.sol\":536:598  while (j < 10){... */\n    tag_27:\n        /* \"ForAndWhileLoops.sol\":547:549  10 */\n      0x0a\n        /* \"ForAndWhileLoops.sol\":543:544  j */\n      dup2\n        /* \"ForAndWhileLoops.sol\":543:549  j < 10 */\n      lt\n        /* \"ForAndWhileLoops.sol\":536:598  while (j < 10){... */\n      iszero\n      tag_28\n      jumpi\n        /* \"ForAndWhileLoops.sol\":584:587  j++ */\n      dup1\n      dup1\n      tag_29\n      swap1\n      tag_20\n      jump\t// in\n    tag_29:\n      swap2\n      pop\n      pop\n        /* \"ForAndWhileLoops.sol\":536:598  while (j < 10){... */\n      jump(tag_27)\n    tag_28:\n        /* \"ForAndWhileLoops.sol\":122:605  {... */\n      pop\n        /* \"ForAndWhileLoops.sol\":90:605  function loops () external pure {... */\n      jump\t// out\n        /* \"#utility.yul\":88:205   */\n    tag_31:\n        /* \"#utility.yul\":197:198   */\n      0x00\n        /* \"#utility.yul\":194:195   */\n      dup1\n        /* \"#utility.yul\":187:199   */\n      revert\n        /* \"#utility.yul\":334:411   */\n    tag_33:\n        /* \"#utility.yul\":371:378   */\n      0x00\n        /* \"#utility.yul\":400:405   */\n      dup2\n        /* \"#utility.yul\":389:405   */\n      swap1\n      pop\n        /* \"#utility.yul\":334:411   */\n      swap2\n      swap1\n      pop\n      jump\t// out\n        /* \"#utility.yul\":417:539   */\n    tag_34:\n        /* \"#utility.yul\":490:514   */\n      tag_44\n        /* \"#utility.yul\":508:513   */\n      dup2\n        /* \"#utility.yul\":490:514   */\n      tag_33\n      jump\t// in\n    tag_44:\n        /* \"#utility.yul\":483:488   */\n      dup2\n        /* \"#utility.yul\":480:515   */\n      eq\n        /* \"#utility.yul\":470:533   */\n      tag_45\n      jumpi\n        /* \"#utility.yul\":529:530   */\n      0x00\n        /* \"#utility.yul\":526:527   */\n      dup1\n        /* \"#utility.yul\":519:531   */\n      revert\n        /* \"#utility.yul\":470:533   */\n    tag_45:\n        /* \"#utility.yul\":417:539   */\n      pop\n      jump\t// out\n        /* \"#utility.yul\":545:684   */\n    tag_35:\n        /* \"#utility.yul\":591:596   */\n      0x00\n        /* \"#utility.yul\":629:635   */\n      dup2\n        /* \"#utility.yul\":616:636   */\n      calldataload\n        /* \"#utility.yul\":607:636   */\n      swap1\n      pop\n        /* \"#utility.yul\":645:678   */\n      tag_47\n        /* \"#utility.yul\":672:677   */\n      dup2\n        /* \"#utility.yul\":645:678   */\n      tag_34\n      jump\t// in\n    tag_47:\n        /* \"#utility.yul\":545:684   */\n      swap3\n      swap2\n      pop\n      pop\n      jump\t// out\n        /* \"#utility.yul\":690:1019   */\n    tag_7:\n        /* \"#utility.yul\":749:755   */\n      0x00\n        /* \"#utility.yul\":798:800   */\n      0x20\n        /* \"#utility.yul\":786:795   */\n      dup3\n        /* \"#utility.yul\":777:784   */\n      dup5\n        /* \"#utility.yul\":773:796   */\n      sub\n        /* \"#utility.yul\":769:801   */\n      slt\n        /* \"#utility.yul\":766:885   */\n      iszero\n      tag_49\n      jumpi\n        /* \"#utility.yul\":804:883   */\n      tag_50\n      tag_31\n      jump\t// in\n    tag_50:\n        /* \"#utility.yul\":766:885   */\n    tag_49:\n        /* \"#utility.yul\":924:925   */\n      0x00\n        /* \"#utility.yul\":949:1002   */\n      tag_51\n        /* \"#utility.yul\":994:1001   */\n      dup5\n        /* \"#utility.yul\":985:991   */\n      dup3\n        /* \"#utility.yul\":974:983   */\n      dup6\n        /* \"#utility.yul\":970:992   */\n      add\n        /* \"#utility.yul\":949:1002   */\n      tag_35\n      jump\t// in\n    tag_51:\n        /* \"#utility.yul\":939:1002   */\n      swap2\n      pop\n        /* \"#utility.yul\":895:1012   */\n      pop\n        /* \"#utility.yul\":690:1019   */\n      swap3\n      swap2\n      pop\n      pop\n      jump\t// out\n        /* \"#utility.yul\":1025:1143   */\n    tag_36:\n        /* \"#utility.yul\":1112:1136   */\n      tag_53\n        /* \"#utility.yul\":1130:1135   */\n      dup2\n        /* \"#utility.yul\":1112:1136   */\n      tag_33\n      jump\t// in\n    tag_53:\n        /* \"#utility.yul\":1107:1110   */\n      dup3\n        /* \"#utility.yul\":1100:1137   */\n      mstore\n        /* \"#utility.yul\":1025:1143   */\n      pop\n      pop\n      jump\t// out\n        /* \"#utility.yul\":1149:1371   */\n    tag_10:\n        /* \"#utility.yul\":1242:1246   */\n      0x00\n        /* \"#utility.yul\":1280:1282   */\n      0x20\n        /* \"#utility.yul\":1269:1278   */\n      dup3\n        /* \"#utility.yul\":1265:1283   */\n      add\n        /* \"#utility.yul\":1257:1283   */\n      swap1\n      pop\n        /* \"#utility.yul\":1293:1364   */\n      tag_55\n        /* \"#utility.yul\":1361:1362   */\n      0x00\n        /* \"#utility.yul\":1350:1359   */\n      dup4\n        /* \"#utility.yul\":1346:1363   */\n      add\n        /* \"#utility.yul\":1337:1343   */\n      dup5\n        /* \"#utility.yul\":1293:1364   */\n      tag_36\n      jump\t// in\n    tag_55:\n        /* \"#utility.yul\":1149:1371   */\n      swap3\n      swap2\n      pop\n      pop\n      jump\t// out\n        /* \"#utility.yul\":1377:1557   */\n    tag_37:\n        /* \"#utility.yul\":1425:1502   */\n      0x4e487b7100000000000000000000000000000000000000000000000000000000\n        /* \"#utility.yul\":1422:1423   */\n      0x00\n        /* \"#utility.yul\":1415:1503   */\n      mstore\n        /* \"#utility.yul\":1522:1526   */\n      0x11\n        /* \"#utility.yul\":1519:1520   */\n      0x04\n        /* \"#utility.yul\":1512:1527   */\n      mstore\n        /* \"#utility.yul\":1546:1550   */\n      0x24\n        /* \"#utility.yul\":1543:1544   */\n      0x00\n        /* \"#utility.yul\":1536:1551   */\n      revert\n        /* \"#utility.yul\":1563:1754   */\n    tag_18:\n        /* \"#utility.yul\":1603:1606   */\n      0x00\n        /* \"#utility.yul\":1622:1642   */\n      tag_58\n        /* \"#utility.yul\":1640:1641   */\n      dup3\n        /* \"#utility.yul\":1622:1642   */\n      tag_33\n      jump\t// in\n    tag_58:\n        /* \"#utility.yul\":1617:1642   */\n      swap2\n      pop\n        /* \"#utility.yul\":1656:1676   */\n      tag_59\n        /* \"#utility.yul\":1674:1675   */\n      dup4\n        /* \"#utility.yul\":1656:1676   */\n      tag_33\n      jump\t// in\n    tag_59:\n        /* \"#utility.yul\":1651:1676   */\n      swap3\n      pop\n        /* \"#utility.yul\":1699:1700   */\n      dup3\n        /* \"#utility.yul\":1696:1697   */\n      dup3\n        /* \"#utility.yul\":1692:1701   */\n      add\n        /* \"#utility.yul\":1685:1701   */\n      swap1\n      pop\n        /* \"#utility.yul\":1720:1723   */\n      dup1\n        /* \"#utility.yul\":1717:1718   */\n      dup3\n        /* \"#utility.yul\":1714:1724   */\n      gt\n        /* \"#utility.yul\":1711:1747   */\n      iszero\n      tag_60\n      jumpi\n        /* \"#utility.yul\":1727:1745   */\n      tag_61\n      tag_37\n      jump\t// in\n    tag_61:\n        /* \"#utility.yul\":1711:1747   */\n    tag_60:\n        /* \"#utility.yul\":1563:1754   */\n      swap3\n      swap2\n      pop\n      pop\n      jump\t// out\n        /* \"#utility.yul\":1760:1993   */\n    tag_20:\n        /* \"#utility.yul\":1799:1802   */\n      0x00\n        /* \"#utility.yul\":1822:1846   */\n      tag_63\n        /* \"#utility.yul\":1840:1845   */\n      dup3\n        /* \"#utility.yul\":1822:1846   */\n      tag_33\n      jump\t// in\n    tag_63:\n        /* \"#utility.yul\":1813:1846   */\n      swap2\n      pop\n        /* \"#utility.yul\":1868:1934   */\n      0xffffffffffffffffffffffffffffffffffffffffffffffffffffffffffffffff\n        /* \"#utility.yul\":1861:1866   */\n      dup3\n        /* \"#utility.yul\":1858:1935   */\n      sub\n        /* \"#utility.yul\":1855:1958   */\n      tag_64\n      jumpi\n        /* \"#utility.yul\":1938:1956   */\n      tag_65\n      tag_37\n      jump\t// in\n    tag_65:\n        /* \"#utility.yul\":1855:1958   */\n    tag_64:\n        /* \"#utility.yul\":1985:1986   */\n      0x01\n        /* \"#utility.yul\":1978:1983   */\n      dup3\n        /* \"#utility.yul\":1974:1987   */\n      add\n        /* \"#utility.yul\":1967:1987   */\n      swap1\n      pop\n        /* \"#utility.yul\":1760:1993   */\n      swap2\n      swap1\n      pop\n      jump\t// out\n\n    auxdata: 0xa2646970667358221220616f9da3b33fd18a2bdc687ce888bf928f5712637df8846bcd5b503c1428f9bd64736f6c634300081a0033\n}\n",
				"bytecode": {
					"linkReferences": {},
					"object": "6080604052348015600e575f80fd5b506102608061001c5f395ff3fe608060405234801561000f575f80fd5b5060043610610034575f3560e01c8063188b85b414610038578063938b9ceb14610068575b5f80fd5b610052600480360381019061004d9190610130565b610072565b60405161005f919061016a565b60405180910390f35b6100706100ac565b005b5f805f600190505b8381116100a257808261008d91906101b0565b9150808061009a906101e3565b91505061007a565b5080915050919050565b5f5b600a8110156100d75760038103156100ca5760058103156100d7575b80806001019150506100ae565b505f5b600a8110156100f65780806100ee906101e3565b9150506100da565b50565b5f80fd5b5f819050919050565b61010f816100fd565b8114610119575f80fd5b50565b5f8135905061012a81610106565b92915050565b5f60208284031215610145576101446100f9565b5b5f6101528482850161011c565b91505092915050565b610164816100fd565b82525050565b5f60208201905061017d5f83018461015b565b92915050565b7f4e487b71000000000000000000000000000000000000000000000000000000005f52601160045260245ffd5b5f6101ba826100fd565b91506101c5836100fd565b92508282019050808211156101dd576101dc610183565b5b92915050565b5f6101ed826100fd565b91507fffffffffffffffffffffffffffffffffffffffffffffffffffffffffffffffff820361021f5761021e610183565b5b60018201905091905056fea2646970667358221220616f9da3b33fd18a2bdc687ce888bf928f5712637df8846bcd5b503c1428f9bd64736f6c634300081a0033",
					"opcodes": "PUSH1 0x80 PUSH1 0x40 MSTORE CALLVALUE DUP1 ISZERO PUSH1 0xE JUMPI PUSH0 DUP1 REVERT JUMPDEST POP PUSH2 0x260 DUP1 PUSH2 0x1C PUSH0 CODECOPY PUSH0 RETURN INVALID PUSH1 0x80 PUSH1 0x40 MSTORE CALLVALUE DUP1 ISZERO PUSH2 0xF JUMPI PUSH0 DUP1 REVERT JUMPDEST POP PUSH1 0x4 CALLDATASIZE LT PUSH2 0x34 JUMPI PUSH0 CALLDATALOAD PUSH1 0xE0 SHR DUP1 PUSH4 0x188B85B4 EQ PUSH2 0x38 JUMPI DUP1 PUSH4 0x938B9CEB EQ PUSH2 0x68 JUMPI JUMPDEST PUSH0 DUP1 REVERT JUMPDEST PUSH2 0x52 PUSH1 0x4 DUP1 CALLDATASIZE SUB DUP2 ADD SWAP1 PUSH2 0x4D SWAP2 SWAP1 PUSH2 0x130 JUMP JUMPDEST PUSH2 0x72 JUMP JUMPDEST PUSH1 0x40 MLOAD PUSH2 0x5F SWAP2 SWAP1 PUSH2 0x16A JUMP JUMPDEST PUSH1 0x40 MLOAD DUP1 SWAP2 SUB SWAP1 RETURN JUMPDEST PUSH2 0x70 PUSH2 0xAC JUMP JUMPDEST STOP JUMPDEST PUSH0 DUP1 PUSH0 PUSH1 0x1 SWAP1 POP JUMPDEST DUP4 DUP2 GT PUSH2 0xA2 JUMPI DUP1 DUP3 PUSH2 0x8D SWAP2 SWAP1 PUSH2 0x1B0 JUMP JUMPDEST SWAP2 POP DUP1 DUP1 PUSH2 0x9A SWAP1 PUSH2 0x1E3 JUMP JUMPDEST SWAP2 POP POP PUSH2 0x7A JUMP JUMPDEST POP DUP1 SWAP2 POP POP SWAP2 SWAP1 POP JUMP JUMPDEST PUSH0 JUMPDEST PUSH1 0xA DUP2 LT ISZERO PUSH2 0xD7 JUMPI PUSH1 0x3 DUP2 SUB ISZERO PUSH2 0xCA JUMPI PUSH1 0x5 DUP2 SUB ISZERO PUSH2 0xD7 JUMPI JUMPDEST DUP1 DUP1 PUSH1 0x1 ADD SWAP2 POP POP PUSH2 0xAE JUMP JUMPDEST POP PUSH0 JUMPDEST PUSH1 0xA DUP2 LT ISZERO PUSH2 0xF6 JUMPI DUP1 DUP1 PUSH2 0xEE SWAP1 PUSH2 0x1E3 JUMP JUMPDEST SWAP2 POP POP PUSH2 0xDA JUMP JUMPDEST POP JUMP JUMPDEST PUSH0 DUP1 REVERT JUMPDEST PUSH0 DUP2 SWAP1 POP SWAP2 SWAP1 POP JUMP JUMPDEST PUSH2 0x10F DUP2 PUSH2 0xFD JUMP JUMPDEST DUP2 EQ PUSH2 0x119 JUMPI PUSH0 DUP1 REVERT JUMPDEST POP JUMP JUMPDEST PUSH0 DUP2 CALLDATALOAD SWAP1 POP PUSH2 0x12A DUP2 PUSH2 0x106 JUMP JUMPDEST SWAP3 SWAP2 POP POP JUMP JUMPDEST PUSH0 PUSH1 0x20 DUP3 DUP5 SUB SLT ISZERO PUSH2 0x145 JUMPI PUSH2 0x144 PUSH2 0xF9 JUMP JUMPDEST JUMPDEST PUSH0 PUSH2 0x152 DUP5 DUP3 DUP6 ADD PUSH2 0x11C JUMP JUMPDEST SWAP2 POP POP SWAP3 SWAP2 POP POP JUMP JUMPDEST PUSH2 0x164 DUP2 PUSH2 0xFD JUMP JUMPDEST DUP3 MSTORE POP POP JUMP JUMPDEST PUSH0 PUSH1 0x20 DUP3 ADD SWAP1 POP PUSH2 0x17D PUSH0 DUP4 ADD DUP5 PUSH2 0x15B JUMP JUMPDEST SWAP3 SWAP2 POP POP JUMP JUMPDEST PUSH32 0x4E487B7100000000000000000000000000000000000000000000000000000000 PUSH0 MSTORE PUSH1 0x11 PUSH1 0x4 MSTORE PUSH1 0x24 PUSH0 REVERT JUMPDEST PUSH0 PUSH2 0x1BA DUP3 PUSH2 0xFD JUMP JUMPDEST SWAP2 POP PUSH2 0x1C5 DUP4 PUSH2 0xFD JUMP JUMPDEST SWAP3 POP DUP3 DUP3 ADD SWAP1 POP DUP1 DUP3 GT ISZERO PUSH2 0x1DD JUMPI PUSH2 0x1DC PUSH2 0x183 JUMP JUMPDEST JUMPDEST SWAP3 SWAP2 POP POP JUMP JUMPDEST PUSH0 PUSH2 0x1ED DUP3 PUSH2 0xFD JUMP JUMPDEST SWAP2 POP PUSH32 0xFFFFFFFFFFFFFFFFFFFFFFFFFFFFFFFFFFFFFFFFFFFFFFFFFFFFFFFFFFFFFFFF DUP3 SUB PUSH2 0x21F JUMPI PUSH2 0x21E PUSH2 0x183 JUMP JUMPDEST JUMPDEST PUSH1 0x1 DUP3 ADD SWAP1 POP SWAP2 SWAP1 POP JUMP INVALID LOG2 PUSH5 0x6970667358 0x22 SLT KECCAK256 PUSH2 0x6F9D LOG3 0xB3 EXTCODEHASH 0xD1 DUP11 0x2B 0xDC PUSH9 0x7CE888BF928F571263 PUSH30 0xF8846BCD5B503C1428F9BD64736F6C634300081A00330000000000000000 "
				},
				"gasEstimates": {
					"creation": {
						"codeDepositCost": "121600",
						"executionCost": "163",
						"totalCost": "121763"
					},
					"external": {
						"loops()": "infinite",
						"sum(uint256)": "infinite"
					}
				},
				"methodIdentifiers": {
					"loops()": "938b9ceb",
					"sum(uint256)": "188b85b4"
				}
			},
			"storageLayout": {
				"storage": [],
				"types": null
			},
			"userdoc": {
				"kind": "user",
				"methods": {},
				"version": 1
			}
		}
	}
}